:020000020000FC
:200000000040003408608A140800683A0000000000000000000000000000000000000000BC
:20000800DEFFED04DFC00015D8400215D8800315D8C00415D9000515D9400615D98007156A
:20001000D9C00815000B307ADA000915DA400A15DA800B15DAC00C15DB000D15DB400E15C4
:20001800DB800F15DBC01015D9401115EBFFFF04DBC012150009313A2880004C10000326FA
:200020002000022600080FC000000706DF401215E8BFFF17E93FFF0400081C801000021E92
:20002800EBFFFF04DBC01215D9401117DF401217DFC000172801707AD8400217D880031714
:20003000D8C00417D9000517D9400617D9800717D9C00817DA000917DA400A17DA800B17F2
:20003800DAC00C17DB000D17DB400E17DB800F17DBC01017DEC01304EF80083ADEFFF90429
:20004000DFC00615DF000515DF0005040001883A0005313AE0BFFC15E0BFFC17E0BFFF15BD
:20004800E03FFD1500800044E0BFFE15E0FFFF17E0BFFE171884703A10001226E0BFFD1707
:20005000100690FA008000741885883A10E7D217E0BFFD17100890FA008000742085883A0D
:2000580010A7D317E17FFD171009883A183EE83A0001883A0005313AE0BFFB15E0BFFB178D
:2000600000000706E0BFFE171085883AE0BFFE15E0BFFD1710800044E0BFFD15003FE30656
:20006800E0BFFF15E0BFFF17103FDD1E0001883A0001883AE037883ADFC00117DF000017BA
:20007000DEC00204F800283ADEFFFB04DFC00415DF000315DF000304E13FFD1500BFFFC44D
:20007800E0BFFF15E03FFE15D0A05E1710000726D0A05E17E0FFFF17E1BFFE17E17FFD175E
:200080001809883A103EE83A00000206003DA03A0005883AE037883ADFC00117DF000017A1
:20008800DEC00204F800283A06C00034DEF8001406800074D68772140080003410A7C41456
:2000900000C0003418E8121410C00326100000151080010410FFFD3600093980000941C075
:20009800003FFF06DEFFFF04DFC000150008DB0000085BC00008B7800008844000086C806B
:2000A00000089D000008764010000226000888C0003FFB0600087440103FF92610C0020C0D
:2000A8001800022600088900003FF50610C0004C1800022600088E40003FF10610C0008C69
:2000B00018000226000893C0003FED061080010C103FEB2600089980003FE9060080007423
:2000B800108C11171080008C103FFC2600800074110C1215114C1315F800283ADEFFFE04E1
:2000C000DC000015000B883A2021883A01000244DFC0011500082DC0800B883A010002041A
:2000C80000082DC00140004401000244DFC00117DC000017DEC0020400082DC100C013340C
:2000D00018D2D04400800074108C15171004D63A10000B2600800074108C15171004D43A13
:2000D80010803FCC1000062600800074213FFFCC110C1615297FFFCC114C171500000206C6
:2000E00018FFFFC4183FEF1EF800283AD0A0521710000B2600800074108C15171004D63A6E
:2000E8001000062600800074108C15171004D43A10803FCC1004C03AF800283A0005883A14
:2000F000F800283ADEFFFE04DC000015DFC001152087D0202021883A1000111E808FA02069
:2000F8000100030410000A1E00082FC000C0013418EAAB048005883AD0E00015D0205315A7
:20010000DFC00117DC000017DEC00204F800283A00082FC000C0007418D5E384003FF5067E
:200108000100038400082FC000C00074003FF106D0A0521710006026DEFFF504DC000115B7
:20011000DFC00A15DF000915DDC00815DD800715DD400615DD000515DCC00415DC80031589
:20011800DC4002152021883A20001326288000B02823883A1000101ED5E0001700800074D5
:20012000B880191E0025883A8100000B8140008B94800044213FFFCC297FFFCC2960001CF6
:200128002120001C2960000421200004000833C0840001048CBFF41EDFC00A17DF000917E8
:20013000DDC00817DD800717DD400617DD000517DCC00417DC800317DC400217DC000117EF
:20013800DEC00B04F800283A2C7FFFC4D4A053178822943A052000148C80032E9445C83A8B
:20014000D0A05315003FEC069004D43A917FFFCCD9400015100490BA95E5883A8087883A88
:200148001D40000B10C0008480C7883A1D80000B10C001041080018480C7883A8085883A70
:200150001F00000B1100000BB5BFFFCCB5A0001C213FFFCC2120001CB5A000042120000473
:200158002589C83A00091880AD7FFFCCE13FFFCCAD60001C2120001CD9400017AD6000048D
:20016000B02C943A212000042549C83AA82A943A15A7883A000918801549883A9D27883ABB
:200168009827D43A2509883A2009D43A980B883A000833C0003FD006F800283ADEFFFF04D4
:20017000DFC0001500C000440080007410CC101500800074108C11171080400C103FFC26BD
:200178000080007400C0030410CC1415100C1415014004040100010400082DC0000B883A51
:200180000100014400082DC001401FC40100008400082DC001401FC4010000C400082DC0A8
:2001880000800044D0A052150005883ADFC00017DEC00104F800283A00800074108C141787
:2001900000C0007410808014188C1415F800283A00800074108C141700FF7FC410C4703A55
:2001980000C00074188C1415F800283A00800074108C0B1700C000741080004C188C0B1566
:2001A0001000022600800044D0A05515F800283A00800074108C0F1700C00074108003CCC6
:2001A800188C0F15D0E054171884B03AD0A05415F800283A000530FA00FFFDC410C4703A2E
:2001B000100170FAF800283ADEFFFE04DFC00115DC000015008000740400004401800074A4
:2001B800140C0B1531A19B04000B883A0100008400091B0000800074140C0A1501800074D8
:2001C000040003C4140C0F1531A1A404000B883A0100004400091B00018000740080007477
:2001C80031A1AD04000B883A010000C4140C0E15DFC00117DC000017DEC0020400091B014C
:2001D000F800283A0007303A00BFFF841884703A1001703AD0A05417D02054151801703A0A
:2001D800F800283A0007303A00BFFF841884703A1001703AD0A05517D02055151801703A00
:2001E000F800283ADEFFFD04DC400115DC0000152823883A2021883ADFC002150008AE80A8
:2001E800144001151400001510C002171C06703A183FFD261000001510C00217183FFE1EB4
:2001F000DFC00217DC400117DC000017DEC00304F800283ADEFFFF04DFC000150008AE8047
:2001F800110035170008AFC01009883ADFC00017DEC0010400083C41DEFFCE04D809883A08
:20020000DFC031150008B180D809883A0008DC80D90010040008E000D90020040008E3807C
:20020800D90030170008E700D1205817D1605717210000440008EE40DFC03117DEC0320472
:20021000F800283ADEFFFF04000B883A01000044DFC00015D0205815D0205615D0205915B8
:20021800000878400008AF00D0A0571500087D4000087F8001000074212701040008F440A9
:20022000DFC00017DEC001040008C1C100088441D0A05917DEFFFF04DFC0001510800058B2
:200228001000081E010000740080008421270304D0A059150008F440DFC00017DEC0010445
:200230000008BEC1010000740080004421270504D0A059150008F440DFC00017DEC001042A
:200238000008BBC1DEFFFF04DFC000150008C1C0D1205817D160571721000044000912C0C6
:20024000100B883A01000084D0A058150008784000087D40D020561500087F800100007403
:200248000080004421270504D0A059150008F440DFC00017DEC001040008BBC1DEFFFF04AA
:20025000DFC000150008C1C0D1605717D12058172909883A213FFFC4000912C0100B883A83
:2002580001000084D0A058150008784000087D40D020561500087F80010000740080004404
:2002600021270504D0A059150008F440DFC00017DEC001040008BBC1D1605817DEFFFF04B6
:2002680001000084DFC000150008784000087D40D02056150008C1C0010000742127010412
:20027000D0205915DFC00017DEC001040008F441D0A05917108000581000331EDEFFFB0475
:20027800DC800215DC400115DFC00415DCC00315DC00001504400084048000C40008AE801E
:20028000D0E056171820907A80E1883A802090BA1421883A810036172100009820001B1E1B
:200288008480361581403717180692FA280AD0BA18C03F0410C9883A00084300D120561733
:2002900084C03817014000C48000361521000044000912C0D0A056159CC0004C9800092661
:20029800DFC00417DCC00317DC800217DC400117DC000017DEC0050400088E410440004434
:2002A000003FDE068C400058883FFC1EDFC00417DCC00317DC800217DC400117DC0000170A
:2002A800DEC00504F800283AF800283A0005883A2887883A18C00003208D883A30C0000564
:2002B00018C03FCC18C0201C18FFE004180003261080004410C00FD8183FF51E2089883A9B
:2002B80020000005F800283A00B80014F800283A00B8001410800317F800283A20C7D020DA
:2002C0002005883A1800031E20CFA0201800011E00AB1114F800283ADEFFFE04017804147E
:2002C800DFC00115DC0000152021883A0008AAC081001004017814140008AAC001782414A2
:2002D000810020040008AAC000B800141080341780803015DFC00117DC000017DEC00204BD
:2002D800F800283A00800074108C0417108000CC20BFFC1EF800283ADEFFFF04DFC00015BE
:2002E00000C000C40080007410CC0015010000C40008B64000C000840080007410CC0015A9
:2002E800010000840008B64000800074100C0015DFC00017DEC00104F800283ADEFFFF04BB
:2002F000DFC0001500C000440080007410CC0015010000440008B64000800074100C0015E9
:2002F800DFC00017DEC00104F800283ADEFFFF04DFC0001500C000840080007410CC001576
:20030000010000840008B64000800074100C0015DFC00017DEC00104F800283A0008B78142
:20030800280A91FA2005883A020000741107C83A30C7883A19C0000338C03FCC18C0201CF5
:2003100018FFE0041800022610C014181800011EF800283A1146B03A1A07883A19C0000503
:2003180010800044003FF106DEFFFD04DC400115DFC00215DC000015288019302023883A0E
:200320001000101E040018C48009883A0140028400090C8010800C04888000050140028484
:200328008009883A000912C010800C0488800045DFC00217DC400117DC000017DEC003041E
:20033000F800283A2821883A003FEF06200891FA0007883A01C00074018008041880010439
:200338001104B03A11C5883A1180000518C00044197FFA1EF800283A00C00074008000742A
:2003400010CC1A1500800074108C1A171080006C103FFC1EF800283ADEFFFF04DFC000157E
:20034800008000840140007401000F4410C040141947883A108000441900000510C00C98DC
:20035000183FFA1E0180007431A7070401400104010000840008C2000180007431A70B04D5
:2003580001400284010000840008C20001800074014003440100008431A70F040008C200B8
:20036000008000840140007401000F4410C200141947883A108000441900000510C00C9802
:20036800183FFA1EDFC00017DEC00104F800283ADEFFFF04DFC000150008CF80DFC00017B2
:20037000DEC001040008D181DEFFFE04DC00001501400C042021883A01000144DFC0011551
:200378000008CCC0800D883A0140014401000104DFC00117DC000017DEC002040008C201DD
:20038000DEFFFE04DC00001501400C042021883A01000184DFC001150008CCC0800D883A1B
:200388000140018401000104DFC00117DC000017DEC002040008C201DEFFFE04DC000015A0
:2003900001400C042021883A010001C4DFC001150008CCC0800D883A014001C4010001048F
:20039800DFC00117DC000017DEC002040008C201DEFFFC0401400F04DFC00315DC00021551
:2003A0002021883A00090C80100B883AD90000840008C6808009883A00800E8401400F046C
:2003A800D8800105000912C0100B883AD90001440008C6800140014401000204D80001C588
:2003B0000008CCC0D980008401400204010001040008C200DFC00317DC000217DEC0040451
:2003B800F800283ADEFFFC04DC0002152821883A200B883AD9000084DFC003150008C680A1
:2003C00000800BC4800B883AD9000144D88001050008C680014001C4010002C4D80001C54C
:2003C8000008CCC0D9800084014002C4010001040008C200DFC00317DC000217DEC0040479
:2003D000F800283ADEFFFE04DC000015014002842021883A01000384DFC001150008CCC048
:2003D800800D883A0140038401000104DFC00117DC000017DEC002040008C201DEFFFF04EF
:2003E00001400C0401000144DFC000150008CCC001400C04010001840008CCC001400C0462
:2003E800010001C40008CCC001400144010002040008CCC0014001C4010002C40008CCC019
:2003F0000140028401000384DFC00017DEC001040008CCC120001A16000F883A2800020E57
:2003F800014BC83A39C0005C200D883A00C000442900092E0080080400C000440000010658
:2004000010001226294B883A10BFFFC418C7883A293FFB3618000D260005883A31400236D7
:20040800314DC83A10C4B03A1806D07A280AD07A183FFA1E380001260085C83AF800283A03
:200410000109C83A01C00044003FE4060005883A003FF80620001716000F883A2005883A89
:200418002800010E014BC83A00C000442900092E0180080400C000440000010630001026DD
:20042000294B883A31BFFFC418C7883A293FFB3618000B261806D07A114001361145C83A08
:20042800280AD07A183FFB1E380001260085C83AF800283A0109C83A01C00044003FE7064B
:200430002005883A003FF806200D883A2900152E280014160080080400C000440000020643
:2004380010000E2628000416294B883A10BFFFC418C7883A293FFA36180008260005883A10
:2004400031400236314DC83A10C4B03A1806D07A280AD07A183FFA1EF800283A0005883A41
:20044800F800283A00C00044003FF4062005883A2900132E280012160180080400C00044CB
:200450000000020630000C2628000416294B883A31BFFFC418C7883A293FFA36180006267A
:200458001806D07A114001361145C83A280AD07A183FFB1EF800283A2005883AF800283AB5
:2004600000C00044003FF6060005883A2000072620C0004C2008D07A180001261145883A34
:20046800294B883A203FFA1EF800283AF800283ADEFFF004DF000F15DF000F04E13FF31525
:20047000E17FF215E1BFF11500BFFA84E0BFFF15E0BFF317108008281000501E0005303A19
:20047800E0BFFD15E0FFFD1700BFFF841884703A1001703AE0BFFD17E0BFFE15E0BFF3176F
:20048000100890FAE0FFF117008000742085883A10E7D215E0BFF317100890FAE0FFF21767
:20048800008000742085883A10E7D315E0BFF11710001A26E0BFF317E0BFFC150005303A5B
:20049000E0BFFB15E0FFFB1700BFFF841884703A1001703AE0BFFB17E0BFFA1500C0004406
:20049800E0BFFC171884983A1007883AD0A05A171884B03AD0A05A15D0A05A17100170FAA9
:2004A000E0BFFA17E0BFF915E0BFF9171001703A0001883A0005883A00001A06E0BFF31722
:2004A800E0BFF8150005303AE0BFF715E0FFF71700BFFF841884703A1001703AE0BFF71791
:2004B000E0BFF61500C00044E0BFF8171884983A0084303A1007883AD0A05A171884703A74
:2004B800D0A05A15D0A05A17100170FAE0BFF617E0BFF515E0BFF5171001703A0001883A6B
:2004C0000005883AE0BFFF15E0BFFE17E0BFF415E0BFF4171001703A0001883AE0BFFF1769
:2004C800E037883ADF000017DEC00104F800283ADEFFFC04DF000315DF000304E13FFF155A
:2004D000E17FFE15E1BFFD15E0FFFE17E0BFFF1718800C2600000806E0FFFF1718800104D4
:2004D800E0BFFF15E0BFFE1711000104E13FFE1518C0001710C00015E0FFFE17E0BFFD17D9
:2004E00018BFF51E0001883AE037883ADF000017DEC00104F800283ADEFFFE04DFC00115EF
:2004E800DF000015D839883A0180007431A77B0401400074296732040100007421277B042A
:2004F000000933000180007431A08A04014000742960080401000074212008040009330014
:2004F8000180007431A7320401400074296701040100007421270104000933000009898087
:200500000009ABC00001883AE037883ADFC00117DF000017DEC00204F800283ADEFFFE0441
:20050800DFC00115DF000015D839883A0009883A00094A800001883A00094E4000099C803A
:20051000D0A05B17D0E05C17D1205D17200D883A180B883A1009883A000826400001883A81
:20051800E037883ADFC00117DF000017DEC00204F800283ADEFFFD04DFC00215DF000115B6
:20052000DF000104E13FFF15D1600504E13FFF1700099200E037883ADFC00117DF00001712
:20052800DEC00204F800283ADEFFFD04DFC00215DF000115DF000104E13FFF150009ADC09E
:20053000008000441001703A0001883A0001883AE037883ADFC00117DF000017DEC002047C
:20053800F800283ADEFFFE04DFC00115DF000015D839883A0100007421273204000947406B
:200540000100007421273E04000947400080007410A75417108001041080001710FFFFCCE0
:200548000080007410E756150080007410A7541710800104108000171006D43A00800074D3
:2005500010E757150080007410A75617108010681000061E00C00FC40080007410E75915E8
:2005580000C001840080007410E75A150080007410A75717108008681000031E00C007C40F
:200560000080007410E75B150100007421274A0400095B800100007421274A040009474096
:200568000001883AE037883ADFC00117DF000017DEC00204F800283ADEFFFC04DFC0031598
:20057000DF000215DF000204E13FFE15E0BFFE1710800217E0BFFF1500000B060140007487
:2005780029672804E13FFF170009BA401000031EE0BFFF171000000500000906E0BFFF17AF
:2005800010800044E0BFFF15E0BFFF171080000310803FCC1080201C10BFE004103FEF1E16
:200588000001883AE037883ADFC00117DF000017DEC00204F800283ADEFFFC04DFC0031578
:20059000DF000215DF000204E13FFE15D1600504E13FFE170009A2C0E0BFFF15E0BFFF17FB
:20059800E037883ADFC00117DF000017DEC00204F800283ADEFFFA04DF000515DF00050403
:2005A000E13FFE152805883AE1BFFC15E1FFFB15E0BFFD05E0BFFE1710800C17E0FFFC177E
:2005A8001880042EE0BFFE1710800D17E0FFFB171880023600BFFFC400001D06E03FFF1568
:2005B000E0BFFE1710C00F17E0BFFC171886703AE0BFFE1710800E171884983AE0FFFF17BB
:2005B8001884B03AE0BFFF15E0BFFE1710C01117E0BFFB171886703AE0BFFE1710801017DA
:2005C0001884983AE0FFFF171884B03AE0BFFF15E0BFFE1710C00B17E0BFFF171885883AC5
:2005C8001007883AE0BFFD03188000250005883AE037883ADF000017DEC00104F800283A4B
:2005D000DEFFFA04DF000515DF000504E13FFE15E17FFD15E1BFFC15E1FFFB15E0BFFE1755
:2005D80010800C17E0FFFC171880042EE0BFFE1710800D17E0FFFB171880023600BFFFC4E9
:2005E00000002A06E03FFF15E0BFFE1710801017E0FFFB171884983AE0FFFC171885883A7D
:2005E800E0BFFF1500001A06E0BFFE1710C00B17E0BFFF171885883A1007883AE0BFFD17DA
:2005F0001080000310803FCC1080201C10BFE00418800025E0BFFD1710800044E0BFFD1549
:2005F800E0BFFC1710800044E0BFFC15E0BFFE1710800C17E0FFFC171880023600BFFFC402
:2006000000000A06E0BFFF1710800044E0BFFF15E0BFFD171080000310803FCC1080201CE1
:2006080010BFE004103FE01E0005883AE037883ADF000017DEC00104F800283ADEFFFE0460
:20061000DF000115DF000104E13FFF15E0BFFF1710800A17108000841007883A00800044A6
:20061800188000250001883AE0BFFF1710800A17108000841080002310803FCC1080004C9E
:20062000103FF91E0005883AE037883ADF000017DEC00104F800283ADEFFFF04DF000015ED
:20062800D839883A0001883AE037883ADF000017DEC00104F800283ADEFFFC04DF0003157C
:20063000DF000304E13FFF15E17FFE15E1BFFD15E0BFFD17E037883ADF000017DEC0010446
:20063800F800283ADEFFFE04DFC00115DF000015D839883AD0A0081710000326D0A0081796
:20064000103EE83A00000106D0A05F04E037883ADFC00117DF000017DEC00204F800283ACC
:20064800DEFFFA04DFC00515DF000415DF000404E13FFD15E17FFC15E0BFFD171000032690
:20065000E0BFFD17108002171000061E00098E401007883A008005841880001500BFFA8457
:2006580000001406E0BFFD17E0FFFC17E0FFFF15E0BFFE15E0BFFE17E0FFFF1710C001158F
:20066000E0BFFF1710C00017E0BFFE1710C00015E0BFFF1710800017E0FFFE1710C001150F
:20066800E0BFFF17E0FFFE1710C000150001883A0005883AE037883ADFC00117DF000017D4
:20067000DEC00204F800283ADEFFFD04DFC00215DF000115DF0001040080007410A7000450
:20067800E0BFFF1500000606E0BFFF1710800017103EE83AE0BFFF1710BFFF04E0BFFF159D
:20068000E0FFFF170080007410A7010418BFF62E0001883A0001883AE037883ADFC00117A4
:20068800DF000017DEC00204F800283ADEFFFA04DFC00515DF000415DF000404E13FFD15B9
:20069000E17FFC15E0BFFC1710800017E0BFFF15E13FFD170009BE8010800044E0BFFE15CC
:2006980000000D06E0BFFF1710800217E0FFFE17180D883AE17FFD171009883A0009B740A7
:2006A0001000021EE0BFFF1700000706E0BFFF1710800017E0BFFF15E0FFFF17E0BFFC1792
:2006A80018BFF01E0005883AE037883ADFC00117DF000017DEC00204F800283ADEFFFF0422
:2006B000DF000015D839883A0001883AE037883ADF000017DEC00104F800283ADEFFFF04F4
:2006B800DF000015D839883A000170FA0001883AE037883ADF000017DEC00104F800283A61
:2006C000DEFFFE04DF000115DF000104E13FFF15E0BFFF1710BFFE8410C0042818C03FCC49
:2006C80018000F1E00C000441884983A10E2C8CC1806C03A18C03FCC1800051E1084100CEF
:2006D0001004C03A10803FCC1000031E0000040600800044000003060005883A000001068B
:2006D8000005883AE037883ADF000017DEC00104F800283A0007883A30C0021E0005883ACF
:2006E000F800283A20C5883A18C0004428CF883A1080000339FFFFC311FFF72611C5C83A92
:2006E800F800283A2080000328C0000311803FCC3180201C31BFE0043000042619C03FCC6F
:2006F00039C0201C39FFE00431C0042618C03FCC10803FCC10C5C83AF800283A210000446A
:2006F80029400044003FEF062005883A10C000071800021E1105C83AF800283A10800044C5
:20070000003FFA06706F747300646570737561700000646579616C7000676E69676E6F538E
:2007080074654D207461646100003A617272754320746E65676E6F530000003A72727543E6
:2007100020746E657461745300003A657665642F4455412F435F4F4949464E4F0000004703
:200718007665642F4455412F4F5F4F49000054557665642F4147562F4148435F55425F526D
:20072000524546466176615F5F6E6F6C726168636675625F5F72656676616C730000006566
:200728006176615F5F6E6F6C726168636675625F5F72656676616C73000000657665642F13
:200730006C756E2F0000006C000000000000000000000000000000000000000000000000BF
:200738000000000000000000000000000000000000000000000000000000000000000000A1
:20074000000000000000000000000000000000000000000000000000000000000000000099
:20074800000000000000000000000000000000000000000000000000000000000000000091
:20075000000000000000000000000000000000000000000000000000000000000000000089
:20075800000000000000000000000000000000000000000000000000000000000000000081
:20076000000000000000000000000000000000000000000000000000000000000000000079
:20076800000000000000000000000000000000000000000000000000000000000000000071
:20077000000000000000000000000000000000000000000000000000000000000000000069
:20077800000000000000000000000000000000000000000000009C4C000000000000000079
:200780000000000000000000000000000000000000000000000130400000000000000000E8
:200788000000000000009C6000000000000000000000000000000000000000000000000055
:20079000000000000001305000000000000000000000000000009C700000000000000000BC
:20079800000000000000000000000000000000000000000000013068000100000000005057
:2007A0000000003C000000000000007F000000070000003F00009DDC00009DDC00009CBCEE
:2007A800000000000000000000000000000098B800000000000000000000000000009D70D4
:2007B000000000000000000000009D70000000000000000000009D7000000000000000000F
:2007B8000000000000000000000000000003AAACFFFFFFFF0001306000009DD400009DD459
:2007C00000009D7000009D70FFFFFFFF000000000000000000000000000000000000000003
:2007C800000000000000000000000000000000000000000000000000000000000000000011
:2007D000000000000000000000000000000000000000000000000000000000000000000009
:2007D800000000000000000000000000000000000000000000000000000000000000000001
:2007E0000000000000000000000000000000000000000000000000000000000000000000F9
:00000001FF
